{
  "contractName": "Auction",
  "abi": [
    {
      "inputs": [],
      "stateMutability": "payable",
      "type": "constructor"
    },
    {
      "anonymous": false,
      "inputs": [
        {
          "indexed": false,
          "internalType": "address",
          "name": "_from",
          "type": "address"
        },
        {
          "indexed": false,
          "internalType": "uint256",
          "name": "_amount",
          "type": "uint256"
        }
      ],
      "name": "receiveFund",
      "type": "event"
    },
    {
      "stateMutability": "payable",
      "type": "receive"
    },
    {
      "inputs": [],
      "name": "getBalance",
      "outputs": [
        {
          "internalType": "uint256",
          "name": "",
          "type": "uint256"
        }
      ],
      "stateMutability": "view",
      "type": "function"
    },
    {
      "inputs": [],
      "name": "withdraw",
      "outputs": [],
      "stateMutability": "nonpayable",
      "type": "function"
    },
    {
      "inputs": [],
      "name": "getLeader",
      "outputs": [
        {
          "internalType": "address",
          "name": "",
          "type": "address"
        }
      ],
      "stateMutability": "view",
      "type": "function"
    },
    {
      "inputs": [],
      "name": "closeGame",
      "outputs": [],
      "stateMutability": "nonpayable",
      "type": "function"
    },
    {
      "inputs": [],
      "name": "openGame",
      "outputs": [],
      "stateMutability": "payable",
      "type": "function"
    },
    {
      "inputs": [],
      "name": "bid",
      "outputs": [],
      "stateMutability": "payable",
      "type": "function"
    }
  ],
  "bytecode": "0x6080604052670de0b6b3a764000034101561001957600080fd5b6000808190555033600460006101000a81548173ffffffffffffffffffffffffffffffffffffffff021916908373ffffffffffffffffffffffffffffffffffffffff160217905550620151806001819055506001544261007991906100cc565b6002819055503460038190555033600560006101000a81548173ffffffffffffffffffffffffffffffffffffffff021916908373ffffffffffffffffffffffffffffffffffffffff16021790555061015b565b60006100d782610122565b91506100e283610122565b9250827fffffffffffffffffffffffffffffffffffffffffffffffffffffffffffffffff038211156101175761011661012c565b5b828201905092915050565b6000819050919050565b7f4e487b7100000000000000000000000000000000000000000000000000000000600052601160045260246000fd5b610e078061016a6000396000f3fe6080604052600436106100595760003560e01c806312065fe01461009e5780631998aeef146100c95780633ccfd60b146100d35780634c051f14146100ea578063786b844b14610115578063fa12d7821461012c57610099565b36610099577f84b92c647469a414fe6d41df89fe7b6ea2f535277901110876df7301e01d6f9d333460405161008f929190610a96565b60405180910390a1005b600080fd5b3480156100aa57600080fd5b506100b3610136565b6040516100c09190610b9f565b60405180910390f35b6100d161013e565b005b3480156100df57600080fd5b506100e86102c9565b005b3480156100f657600080fd5b506100ff6104f3565b60405161010c9190610a7b565b60405180910390f35b34801561012157600080fd5b5061012a61051d565b005b6101346106d0565b005b600047905090565b60006001811115610178577f4e487b7100000000000000000000000000000000000000000000000000000000600052602160045260246000fd5b600560149054906101000a900460ff1660018111156101c0577f4e487b7100000000000000000000000000000000000000000000000000000000600052602160045260246000fd5b14610200576040517f08c379a00000000000000000000000000000000000000000000000000000000081526004016101f790610aff565b60405180910390fd5b6000543411610244576040517f08c379a000000000000000000000000000000000000000000000000000000000815260040161023b90610adf565b60405180910390fd5b3460008190555033600460006101000a81548173ffffffffffffffffffffffffffffffffffffffff021916908373ffffffffffffffffffffffffffffffffffffffff16021790555061029461094b565b6102c7577f4e487b7100000000000000000000000000000000000000000000000000000000600052600160045260246000fd5b565b600180811115610302577f4e487b7100000000000000000000000000000000000000000000000000000000600052602160045260246000fd5b600560149054906101000a900460ff16600181111561034a577f4e487b7100000000000000000000000000000000000000000000000000000000600052602160045260246000fd5b1461038a576040517f08c379a000000000000000000000000000000000000000000000000000000000815260040161038190610b3f565b60405180910390fd5b600560009054906101000a900473ffffffffffffffffffffffffffffffffffffffff1673ffffffffffffffffffffffffffffffffffffffff163373ffffffffffffffffffffffffffffffffffffffff161461041a576040517f08c379a000000000000000000000000000000000000000000000000000000000815260040161041190610b5f565b60405180910390fd5b600560009054906101000a900473ffffffffffffffffffffffffffffffffffffffff1673ffffffffffffffffffffffffffffffffffffffff163373ffffffffffffffffffffffffffffffffffffffff16146104aa576040517f08c379a00000000000000000000000000000000000000000000000000000000081526004016104a190610b7f565b60405180910390fd5b3373ffffffffffffffffffffffffffffffffffffffff166108fc479081150290604051600060405180830381858888f193505050501580156104f0573d6000803e3d6000fd5b50565b6000600460009054906101000a900473ffffffffffffffffffffffffffffffffffffffff16905090565b60006001811115610557577f4e487b7100000000000000000000000000000000000000000000000000000000600052602160045260246000fd5b600560149054906101000a900460ff16600181111561059f577f4e487b7100000000000000000000000000000000000000000000000000000000600052602160045260246000fd5b146105df576040517f08c379a00000000000000000000000000000000000000000000000000000000081526004016105d690610aff565b60405180910390fd5b600560009054906101000a900473ffffffffffffffffffffffffffffffffffffffff1673ffffffffffffffffffffffffffffffffffffffff163373ffffffffffffffffffffffffffffffffffffffff161461066f576040517f08c379a000000000000000000000000000000000000000000000000000000000815260040161066690610b5f565b60405180910390fd5b600254421161067d57600080fd5b6001600560146101000a81548160ff021916908360018111156106c9577f4e487b7100000000000000000000000000000000000000000000000000000000600052602160045260246000fd5b0217905550565b600180811115610709577f4e487b7100000000000000000000000000000000000000000000000000000000600052602160045260246000fd5b600560149054906101000a900460ff166001811115610751577f4e487b7100000000000000000000000000000000000000000000000000000000600052602160045260246000fd5b14610791576040517f08c379a000000000000000000000000000000000000000000000000000000000815260040161078890610b3f565b60405180910390fd5b600560009054906101000a900473ffffffffffffffffffffffffffffffffffffffff1673ffffffffffffffffffffffffffffffffffffffff163373ffffffffffffffffffffffffffffffffffffffff1614610821576040517f08c379a000000000000000000000000000000000000000000000000000000000815260040161081890610b5f565b60405180910390fd5b60004714610864576040517f08c379a000000000000000000000000000000000000000000000000000000000815260040161085b90610abf565b60405180910390fd5b670de0b6b3a76400003410156108af576040517f08c379a00000000000000000000000000000000000000000000000000000000081526004016108a690610b1f565b60405180910390fd5b6000600560146101000a81548160ff021916908360018111156108fb577f4e487b7100000000000000000000000000000000000000000000000000000000600052602160045260246000fd5b0217905550600080819055503460038190555061091661094b565b610949577f4e487b7100000000000000000000000000000000000000000000000000000000600052600160045260246000fd5b565b60006001544261095b9190610bcb565b6002819055506001905090565b61097181610c21565b82525050565b6000610984602183610bba565b915061098f82610c8c565b604082019050919050565b60006109a7601683610bba565b91506109b282610cdb565b602082019050919050565b60006109ca600e83610bba565b91506109d582610d04565b602082019050919050565b60006109ed601e83610bba565b91506109f882610d2d565b602082019050919050565b6000610a10601283610bba565b9150610a1b82610d56565b602082019050919050565b6000610a33600a83610bba565b9150610a3e82610d7f565b602082019050919050565b6000610a56600b83610bba565b9150610a6182610da8565b602082019050919050565b610a7581610c53565b82525050565b6000602082019050610a906000830184610968565b92915050565b6000604082019050610aab6000830185610968565b610ab86020830184610a6c565b9392505050565b60006020820190508181036000830152610ad881610977565b9050919050565b60006020820190508181036000830152610af88161099a565b9050919050565b60006020820190508181036000830152610b18816109bd565b9050919050565b60006020820190508181036000830152610b38816109e0565b9050919050565b60006020820190508181036000830152610b5881610a03565b9050919050565b60006020820190508181036000830152610b7881610a26565b9050919050565b60006020820190508181036000830152610b9881610a49565b9050919050565b6000602082019050610bb46000830184610a6c565b92915050565b600082825260208201905092915050565b6000610bd682610c53565b9150610be183610c53565b9250827fffffffffffffffffffffffffffffffffffffffffffffffffffffffffffffffff03821115610c1657610c15610c5d565b5b828201905092915050565b6000610c2c82610c33565b9050919050565b600073ffffffffffffffffffffffffffffffffffffffff82169050919050565b6000819050919050565b7f4e487b7100000000000000000000000000000000000000000000000000000000600052601160045260246000fd5b7f46756e64206973206e6f7420656d7074793a207769746864726177206669727360008201527f7400000000000000000000000000000000000000000000000000000000000000602082015250565b7f626964206973206e6f74206869676820656e6f75676800000000000000000000600082015250565b7f47616d6520697320636c6f736564000000000000000000000000000000000000600082015250565b7f7472616e73666572203c20312065746865722c206e6f7420656e6f7567680000600082015250565b7f47616d65206973207374696c6c206f70656e0000000000000000000000000000600082015250565b7f6f776e6572206f6e6c7900000000000000000000000000000000000000000000600082015250565b7f77696e6e6572206f6e6c7900000000000000000000000000000000000000000060008201525056fea2646970667358221220449ca8a2329901e758d98e18bd8fabc228f10dc1647b841744a485995fef6cb064736f6c63430008040033",
  "immutableReferences": {},
  "source": "pragma solidity ^0.8.0 < 0.9.0;\n\ncontract Auction {\n  uint private highest_bid;\n  uint private cool_time;\n  uint private close_date;\n  uint private init_fund;\n  address private highest_bidder;\n  address private ownerAddr;\n  enum states { Open, Closed }\n  states private curState;\n\n  event receiveFund(address _from, uint _amount);\n\n  constructor() payable {\n    require(msg.value >= 1 ether);\n    highest_bid = 0;\n    highest_bidder = msg.sender;\n    cool_time = 1 days;\n    close_date = block.timestamp + cool_time;\n    init_fund = msg.value;\n    ownerAddr = msg.sender;\n  }\n\n  receive() external payable {\n    emit receiveFund(msg.sender, msg.value);\n  }\n \n  modifier initFund() {\n    require(msg.value >= 1 ether, \"transfer < 1 ether, not enough\");\n    _;\n  }\n\n  modifier emptyFund() {\n    require(address(this).balance == 0, \"Fund is not empty: withdraw first\");\n    _;\n  }\n\n  modifier onlyOwner() {\n    require(msg.sender == ownerAddr, \"owner only\");\n    _;\n  }\n\n  modifier onlyWinner() {\n    require(msg.sender == ownerAddr, \"winner only\");\n    _;\n  }\n\n  modifier whenOpen() {\n    require(curState == states.Open, \"Game is closed\");\n    _;\n  }\n\n  modifier whenClosed() {\n    require(curState == states.Closed, \"Game is still open\");\n    _;\n  }\n\n  function getBalance() external view returns (uint) {\n    return address(this).balance;\n  }\n\n  function withdraw() external whenClosed\n                               onlyOwner\n                               onlyWinner {\n    payable(msg.sender).transfer(address(this).balance);\n  }\n\n  function getLeader() external view returns (address) {\n    return highest_bidder;\n  }\n\n  function closeGame() external whenOpen\n                                onlyOwner {\n    require(block.timestamp > close_date);\n    curState = states.Closed;\n  }\n\n  function openGame() external payable whenClosed\n                                       onlyOwner\n                                       emptyFund\n                                       initFund {\n    curState = states.Open;\n    highest_bid = 0;\n    init_fund = msg.value;\n    assert(reset_close_date());\n  }\n\n  function reset_close_date() internal returns (bool) {\n    close_date = block.timestamp + cool_time;\n    return true;\n  }\n\n  function bid() external payable whenOpen {\n    require(msg.value > highest_bid, \"bid is not high enough\");\n    highest_bid = msg.value;\n    highest_bidder = msg.sender;\n    assert(reset_close_date());\n  }\n}\n\n",
  "sourcePath": "/Users/jeff/Desktop/desktop/programming/smart_contract/Auction/contracts/Auction.sol",
  "compiler": {
    "name": "solc",
    "version": "0.8.4+commit.c7e474f2.Emscripten.clang"
  },
  "schemaVersion": "3.4.1",
  "updatedAt": "2021-06-13T07:11:22.530Z",
  "devdoc": {
    "kind": "dev",
    "methods": {},
    "version": 1
  },
  "userdoc": {
    "kind": "user",
    "methods": {},
    "version": 1
  }
}